{
  "contractName": "BatToken",
  "abi": [
    {
      "inputs": [
        {
          "internalType": "uint256",
          "name": "_totalSupply",
          "type": "uint256"
        }
      ],
      "stateMutability": "nonpayable",
      "type": "constructor"
    },
    {
      "anonymous": false,
      "inputs": [
        {
          "indexed": true,
          "internalType": "address",
          "name": "_owner",
          "type": "address"
        },
        {
          "indexed": true,
          "internalType": "address",
          "name": "_spender",
          "type": "address"
        },
        {
          "indexed": false,
          "internalType": "uint256",
          "name": "_value",
          "type": "uint256"
        }
      ],
      "name": "Approval",
      "type": "event"
    },
    {
      "anonymous": false,
      "inputs": [
        {
          "indexed": true,
          "internalType": "address",
          "name": "_from",
          "type": "address"
        },
        {
          "indexed": true,
          "internalType": "address",
          "name": "_to",
          "type": "address"
        },
        {
          "indexed": false,
          "internalType": "uint256",
          "name": "_value",
          "type": "uint256"
        }
      ],
      "name": "Transfer",
      "type": "event"
    },
    {
      "inputs": [
        {
          "internalType": "address",
          "name": "",
          "type": "address"
        },
        {
          "internalType": "address",
          "name": "",
          "type": "address"
        }
      ],
      "name": "allowance",
      "outputs": [
        {
          "internalType": "uint256",
          "name": "",
          "type": "uint256"
        }
      ],
      "stateMutability": "view",
      "type": "function",
      "constant": true
    },
    {
      "inputs": [
        {
          "internalType": "address",
          "name": "",
          "type": "address"
        }
      ],
      "name": "balanceOf",
      "outputs": [
        {
          "internalType": "uint256",
          "name": "",
          "type": "uint256"
        }
      ],
      "stateMutability": "view",
      "type": "function",
      "constant": true
    },
    {
      "inputs": [],
      "name": "name",
      "outputs": [
        {
          "internalType": "string",
          "name": "",
          "type": "string"
        }
      ],
      "stateMutability": "view",
      "type": "function",
      "constant": true
    },
    {
      "inputs": [],
      "name": "symbol",
      "outputs": [
        {
          "internalType": "string",
          "name": "",
          "type": "string"
        }
      ],
      "stateMutability": "view",
      "type": "function",
      "constant": true
    },
    {
      "inputs": [],
      "name": "totalSupply",
      "outputs": [
        {
          "internalType": "uint256",
          "name": "",
          "type": "uint256"
        }
      ],
      "stateMutability": "view",
      "type": "function",
      "constant": true
    },
    {
      "inputs": [
        {
          "internalType": "address",
          "name": "_to",
          "type": "address"
        },
        {
          "internalType": "uint256",
          "name": "_value",
          "type": "uint256"
        }
      ],
      "name": "transfer",
      "outputs": [
        {
          "internalType": "bool",
          "name": "success",
          "type": "bool"
        }
      ],
      "stateMutability": "nonpayable",
      "type": "function"
    },
    {
      "inputs": [
        {
          "internalType": "address",
          "name": "_spender",
          "type": "address"
        },
        {
          "internalType": "uint256",
          "name": "_value",
          "type": "uint256"
        }
      ],
      "name": "approve",
      "outputs": [
        {
          "internalType": "bool",
          "name": "success",
          "type": "bool"
        }
      ],
      "stateMutability": "nonpayable",
      "type": "function"
    },
    {
      "inputs": [
        {
          "internalType": "address",
          "name": "_from",
          "type": "address"
        },
        {
          "internalType": "address",
          "name": "_to",
          "type": "address"
        },
        {
          "internalType": "uint256",
          "name": "_value",
          "type": "uint256"
        }
      ],
      "name": "transferFrom",
      "outputs": [
        {
          "internalType": "bool",
          "name": "success",
          "type": "bool"
        }
      ],
      "stateMutability": "nonpayable",
      "type": "function"
    }
  ],
  "bytecode": "0x60806040523480156200001157600080fd5b50604051620012e2380380620012e28339818101604052810190620000379190620001ba565b6040518060400160405280600981526020017f42617420546f6b656e0000000000000000000000000000000000000000000000815250600090816200007d91906200045c565b506040518060400160405280600381526020017f424154000000000000000000000000000000000000000000000000000000000081525060019081620000c491906200045c565b508060028190555033600560006101000a81548173ffffffffffffffffffffffffffffffffffffffff021916908373ffffffffffffffffffffffffffffffffffffffff1602179055508060036000600560009054906101000a900473ffffffffffffffffffffffffffffffffffffffff1673ffffffffffffffffffffffffffffffffffffffff1673ffffffffffffffffffffffffffffffffffffffff168152602001908152602001600020819055505062000543565b600080fd5b6000819050919050565b62000194816200017f565b8114620001a057600080fd5b50565b600081519050620001b48162000189565b92915050565b600060208284031215620001d357620001d26200017a565b5b6000620001e384828501620001a3565b91505092915050565b600081519050919050565b7f4e487b7100000000000000000000000000000000000000000000000000000000600052604160045260246000fd5b7f4e487b7100000000000000000000000000000000000000000000000000000000600052602260045260246000fd5b600060028204905060018216806200026e57607f821691505b60208210810362000284576200028362000226565b5b50919050565b60008190508160005260206000209050919050565b60006020601f8301049050919050565b600082821b905092915050565b600060088302620002ee7fffffffffffffffffffffffffffffffffffffffffffffffffffffffffffffffff82620002af565b620002fa8683620002af565b95508019841693508086168417925050509392505050565b6000819050919050565b60006200033d6200033762000331846200017f565b62000312565b6200017f565b9050919050565b6000819050919050565b62000359836200031c565b62000371620003688262000344565b848454620002bc565b825550505050565b600090565b6200038862000379565b620003958184846200034e565b505050565b5b81811015620003bd57620003b16000826200037e565b6001810190506200039b565b5050565b601f8211156200040c57620003d6816200028a565b620003e1846200029f565b81016020851015620003f1578190505b6200040962000400856200029f565b8301826200039a565b50505b505050565b600082821c905092915050565b6000620004316000198460080262000411565b1980831691505092915050565b60006200044c83836200041e565b9150826002028217905092915050565b6200046782620001ec565b67ffffffffffffffff811115620004835762000482620001f7565b5b6200048f825462000255565b6200049c828285620003c1565b600060209050601f831160018114620004d45760008415620004bf578287015190505b620004cb85826200043e565b8655506200053b565b601f198416620004e4866200028a565b60005b828110156200050e57848901518255600182019150602085019450602081019050620004e7565b868310156200052e57848901516200052a601f8916826200041e565b8355505b6001600288020188555050505b505050505050565b610d8f80620005536000396000f3fe608060405234801561001057600080fd5b50600436106100885760003560e01c806370a082311161005b57806370a082311461012957806395d89b4114610159578063a9059cbb14610177578063dd62ed3e146101a757610088565b806306fdde031461008d578063095ea7b3146100ab57806318160ddd146100db57806323b872dd146100f9575b600080fd5b6100956101d7565b6040516100a29190610949565b60405180910390f35b6100c560048036038101906100c09190610a04565b610265565b6040516100d29190610a5f565b60405180910390f35b6100e361042f565b6040516100f09190610a89565b60405180910390f35b610113600480360381019061010e9190610aa4565b610435565b6040516101209190610a5f565b60405180910390f35b610143600480360381019061013e9190610af7565b61064f565b6040516101509190610a89565b60405180910390f35b610161610667565b60405161016e9190610949565b60405180910390f35b610191600480360381019061018c9190610a04565b6106f5565b60405161019e9190610a5f565b60405180910390f35b6101c160048036038101906101bc9190610b24565b610894565b6040516101ce9190610a89565b60405180910390f35b600080546101e490610b93565b80601f016020809104026020016040519081016040528092919081815260200182805461021090610b93565b801561025d5780601f106102325761010080835404028352916020019161025d565b820191906000526020600020905b81548152906001019060200180831161024057829003601f168201915b505050505081565b600081600360003373ffffffffffffffffffffffffffffffffffffffff1673ffffffffffffffffffffffffffffffffffffffff1681526020019081526020016000205410156102e9576040517f08c379a00000000000000000000000000000000000000000000000000000000081526004016102e090610c10565b60405180910390fd5b81600460003373ffffffffffffffffffffffffffffffffffffffff1673ffffffffffffffffffffffffffffffffffffffff16815260200190815260200160002060008573ffffffffffffffffffffffffffffffffffffffff1673ffffffffffffffffffffffffffffffffffffffff1681526020019081526020016000208190555081600360003373ffffffffffffffffffffffffffffffffffffffff1673ffffffffffffffffffffffffffffffffffffffff16815260200190815260200160002060008282546103b99190610c5f565b925050819055508273ffffffffffffffffffffffffffffffffffffffff163373ffffffffffffffffffffffffffffffffffffffff167f8c5be1e5ebec7d5bd14f71427d1e84f3dd0314c0f7b2291e5b200ac8c7c3b9258460405161041d9190610a89565b60405180910390a36001905092915050565b60025481565b600081600460008673ffffffffffffffffffffffffffffffffffffffff1673ffffffffffffffffffffffffffffffffffffffff16815260200190815260200160002060003373ffffffffffffffffffffffffffffffffffffffff1673ffffffffffffffffffffffffffffffffffffffff1681526020019081526020016000205410156104f6576040517f08c379a00000000000000000000000000000000000000000000000000000000081526004016104ed90610d05565b60405180910390fd5b81600360008573ffffffffffffffffffffffffffffffffffffffff1673ffffffffffffffffffffffffffffffffffffffff16815260200190815260200160002060008282546105459190610d25565b9250508190555081600460008673ffffffffffffffffffffffffffffffffffffffff1673ffffffffffffffffffffffffffffffffffffffff16815260200190815260200160002060003373ffffffffffffffffffffffffffffffffffffffff1673ffffffffffffffffffffffffffffffffffffffff16815260200190815260200160002060008282546105d89190610c5f565b925050819055508273ffffffffffffffffffffffffffffffffffffffff168473ffffffffffffffffffffffffffffffffffffffff167fddf252ad1be2c89b69c2b068fc378daa952ba7f163c4a11628f55a4df523b3ef8460405161063c9190610a89565b60405180910390a3600190509392505050565b60036020528060005260406000206000915090505481565b6001805461067490610b93565b80601f01602080910402602001604051908101604052809291908181526020018280546106a090610b93565b80156106ed5780601f106106c2576101008083540402835291602001916106ed565b820191906000526020600020905b8154815290600101906020018083116106d057829003601f168201915b505050505081565b600081600360003373ffffffffffffffffffffffffffffffffffffffff1673ffffffffffffffffffffffffffffffffffffffff168152602001908152602001600020541015610779576040517f08c379a000000000000000000000000000000000000000000000000000000000815260040161077090610c10565b60405180910390fd5b81600360003373ffffffffffffffffffffffffffffffffffffffff1673ffffffffffffffffffffffffffffffffffffffff16815260200190815260200160002060008282546107c89190610c5f565b9250508190555081600360008573ffffffffffffffffffffffffffffffffffffffff1673ffffffffffffffffffffffffffffffffffffffff168152602001908152602001600020600082825461081e9190610d25565b925050819055508273ffffffffffffffffffffffffffffffffffffffff163373ffffffffffffffffffffffffffffffffffffffff167fddf252ad1be2c89b69c2b068fc378daa952ba7f163c4a11628f55a4df523b3ef846040516108829190610a89565b60405180910390a36001905092915050565b6004602052816000526040600020602052806000526040600020600091509150505481565b600081519050919050565b600082825260208201905092915050565b60005b838110156108f35780820151818401526020810190506108d8565b60008484015250505050565b6000601f19601f8301169050919050565b600061091b826108b9565b61092581856108c4565b93506109358185602086016108d5565b61093e816108ff565b840191505092915050565b600060208201905081810360008301526109638184610910565b905092915050565b600080fd5b600073ffffffffffffffffffffffffffffffffffffffff82169050919050565b600061099b82610970565b9050919050565b6109ab81610990565b81146109b657600080fd5b50565b6000813590506109c8816109a2565b92915050565b6000819050919050565b6109e1816109ce565b81146109ec57600080fd5b50565b6000813590506109fe816109d8565b92915050565b60008060408385031215610a1b57610a1a61096b565b5b6000610a29858286016109b9565b9250506020610a3a858286016109ef565b9150509250929050565b60008115159050919050565b610a5981610a44565b82525050565b6000602082019050610a746000830184610a50565b92915050565b610a83816109ce565b82525050565b6000602082019050610a9e6000830184610a7a565b92915050565b600080600060608486031215610abd57610abc61096b565b5b6000610acb868287016109b9565b9350506020610adc868287016109b9565b9250506040610aed868287016109ef565b9150509250925092565b600060208284031215610b0d57610b0c61096b565b5b6000610b1b848285016109b9565b91505092915050565b60008060408385031215610b3b57610b3a61096b565b5b6000610b49858286016109b9565b9250506020610b5a858286016109b9565b9150509250929050565b7f4e487b7100000000000000000000000000000000000000000000000000000000600052602260045260246000fd5b60006002820490506001821680610bab57607f821691505b602082108103610bbe57610bbd610b64565b5b50919050565b7f496e73756666696369656e7420746f6b656e7300000000000000000000000000600082015250565b6000610bfa6013836108c4565b9150610c0582610bc4565b602082019050919050565b60006020820190508181036000830152610c2981610bed565b9050919050565b7f4e487b7100000000000000000000000000000000000000000000000000000000600052601160045260246000fd5b6000610c6a826109ce565b9150610c75836109ce565b9250828203905081811115610c8d57610c8c610c30565b5b92915050565b7f596f7520617265206e6f7420616c6c6f77656420746f207370656e642061626f60008201527f766520796f757220616c6c6f77616e6365000000000000000000000000000000602082015250565b6000610cef6031836108c4565b9150610cfa82610c93565b604082019050919050565b60006020820190508181036000830152610d1e81610ce2565b9050919050565b6000610d30826109ce565b9150610d3b836109ce565b9250828201905080821115610d5357610d52610c30565b5b9291505056fea264697066735822122042730e27175434bdc5c2a9b9a17be9cf19e438d5003c1b7bc28fd7ad7877e7e564736f6c63430008110033",
  "immutableReferences": {},
  "source": "// SPDX-License-Identifier: GPL-3.0\r\npragma solidity ^0.8.1;\r\ncontract BatToken\r\n{\r\n    //Variables \r\n    string public name;\r\n    string public symbol;\r\n    uint public totalSupply;\r\n    mapping(address => uint) public balanceOf;\r\n    mapping(address => mapping(address => uint)) public allowance;\r\n    address owner;\r\n\r\n    //Events\r\n    event Transfer(address indexed _from , address indexed _to, uint _value);\r\n    event Approval(address indexed _owner, address indexed _spender, uint _value);\r\n\r\n    constructor(uint _totalSupply)\r\n    {\r\n        name = \"Bat Token\";\r\n        symbol = \"BAT\";\r\n        totalSupply = _totalSupply;\r\n        owner = msg.sender;\r\n        balanceOf[owner] = _totalSupply;\r\n    }\r\n\r\n    //Functions\r\n    function transfer(address _to,uint _value) public returns (bool success)\r\n    {\r\n        require(balanceOf[msg.sender] >= _value, \"Insufficient tokens\");\r\n        balanceOf[msg.sender] -= _value;\r\n        balanceOf[_to] += _value;\r\n        emit Transfer(msg.sender, _to, _value);\r\n        return true;\r\n    }\r\n    function approve(address _spender,uint _value) public returns (bool success)\r\n    {\r\n        require(balanceOf[msg.sender] >= _value,\"Insufficient tokens\");\r\n        allowance[msg.sender][_spender] = _value;\r\n        balanceOf[msg.sender] -= _value;\r\n        emit Approval(msg.sender, _spender, _value);\r\n        return true;\r\n    }\r\n    function transferFrom(address _from,address _to,uint _value) public returns(bool success)\r\n    {\r\n        require(allowance[_from][msg.sender] >= _value,\"You are not allowed to spend above your allowance\");\r\n        balanceOf[_to] += _value;\r\n        allowance[_from][msg.sender] -= _value;\r\n        emit Transfer(_from, _to, _value);\r\n        return true;\r\n    }\r\n}\r\n",
  "sourcePath": "C:\\Users\\subra\\Desktop\\BlockChain\\Bat_Token\\contracts\\batToken.sol",
  "compiler": {
    "name": "solc",
    "version": "0.8.17+commit.8df45f5f.Emscripten.clang"
  },
  "schemaVersion": "3.4.10",
  "updatedAt": "2022-10-21T10:09:20.637Z",
  "networkType": "ethereum",
  "devdoc": {
    "kind": "dev",
    "methods": {},
    "version": 1
  },
  "userdoc": {
    "kind": "user",
    "methods": {},
    "version": 1
  }
}